{
  "contractName": "FileIntegrity",
  "abi": [
    {
      "inputs": [
        {
          "internalType": "string",
          "name": "file",
          "type": "string"
        },
        {
          "internalType": "address",
          "name": "person",
          "type": "address"
        }
      ],
      "name": "registerFile",
      "outputs": [],
      "stateMutability": "nonpayable",
      "type": "function"
    },
    {
      "inputs": [
        {
          "internalType": "string",
          "name": "file",
          "type": "string"
        },
        {
          "internalType": "address",
          "name": "person",
          "type": "address"
        }
      ],
      "name": "validateFile",
      "outputs": [
        {
          "internalType": "bool",
          "name": "",
          "type": "bool"
        }
      ],
      "stateMutability": "view",
      "type": "function"
    }
  ],
  "bytecode": "0x608060405234801561001057600080fd5b50610487806100206000396000f3fe608060405234801561001057600080fd5b50600436106100365760003560e01c806341c293d11461003b5780639b5cac7d14610057575b600080fd5b610055600480360381019061005091906101fb565b610087565b005b610071600480360381019061006c91906101fb565b6100fa565b60405161007e91906102ae565b60405180910390f35b60008260405160200161009a9190610297565b604051602081830303815290604052805190602001209050806000808473ffffffffffffffffffffffffffffffffffffffff1673ffffffffffffffffffffffffffffffffffffffff16815260200190815260200160002081905550505050565b6000808360405160200161010e9190610297565b60405160208183030381529060405280519060200120905060008060008573ffffffffffffffffffffffffffffffffffffffff1673ffffffffffffffffffffffffffffffffffffffff1681526020019081526020016000205490508082149250505092915050565b6000610189610184846102ee565b6102c9565b9050828152602081018484840111156101a5576101a461041a565b5b6101b0848285610373565b509392505050565b6000813590506101c78161043a565b92915050565b600082601f8301126101e2576101e1610415565b5b81356101f2848260208601610176565b91505092915050565b6000806040838503121561021257610211610424565b5b600083013567ffffffffffffffff8111156102305761022f61041f565b5b61023c858286016101cd565b925050602061024d858286016101b8565b9150509250929050565b61026081610347565b82525050565b60006102718261031f565b61027b818561032a565b935061028b818560208601610382565b80840191505092915050565b60006102a38284610266565b915081905092915050565b60006020820190506102c36000830184610257565b92915050565b60006102d36102e4565b90506102df82826103b5565b919050565b6000604051905090565b600067ffffffffffffffff821115610309576103086103e6565b5b61031282610429565b9050602081019050919050565b600081519050919050565b600081905092915050565b600061034082610353565b9050919050565b60008115159050919050565b600073ffffffffffffffffffffffffffffffffffffffff82169050919050565b82818337600083830152505050565b60005b838110156103a0578082015181840152602081019050610385565b838111156103af576000848401525b50505050565b6103be82610429565b810181811067ffffffffffffffff821117156103dd576103dc6103e6565b5b80604052505050565b7f4e487b7100000000000000000000000000000000000000000000000000000000600052604160045260246000fd5b600080fd5b600080fd5b600080fd5b600080fd5b6000601f19601f8301169050919050565b61044381610335565b811461044e57600080fd5b5056fea264697066735822122061e6e16d2053de18fb08874332f7ea5df493e044cb8bd9c814307bcdb0f470df64736f6c63430008060033",
  "immutableReferences": {},
  "source": "// SPDX-License-Identifier: UNLICENCED\n\npragma solidity 0.8.6;\n\ncontract FileIntegrity {\n    mapping(address => bytes32) private files;\n\n    function registerFile(string memory file, address person) public{\n        bytes32 fileHash = keccak256(abi.encodePacked(file));\n        files[person] = fileHash;\n    }\n\n    function validateFile(string memory file, address person) public view returns(bool) {\n         bytes32 fileHash = keccak256(abi.encodePacked(file));\n         bytes32 validFileHash = files[person];\n         return fileHash == validFileHash;\n    }\n}",
  "sourcePath": "/home/ecompdavid/Solidity/FileIntegrity/contracts/FileIntegrity.sol",
  "compiler": {
    "name": "solc",
    "version": "0.8.6+commit.11564f7e.Emscripten.clang"
  },
  "schemaVersion": "3.4.1",
  "updatedAt": "2021-08-09T10:56:34.080Z",
  "devdoc": {
    "kind": "dev",
    "methods": {},
    "version": 1
  },
  "userdoc": {
    "kind": "user",
    "methods": {},
    "version": 1
  }
}